{
  "_format": "hh-sol-artifact-1",
  "contractName": "IRRCalculator",
  "sourceName": "contracts/IRRCalculator.sol",
  "abi": [
    {
      "constant": true,
      "inputs": [],
      "name": "getIRR",
      "outputs": [
        {
          "name": "",
          "type": "int256"
        }
      ],
      "payable": false,
      "stateMutability": "view",
      "type": "function"
    },
    {
      "inputs": [
        {
          "name": "_rate",
          "type": "uint256"
        },
        {
          "name": "_values",
          "type": "int256[]"
        }
      ],
      "payable": false,
      "stateMutability": "nonpayable",
      "type": "constructor"
    }
  ],
  "bytecode": "0x6080604052600080553480156200001557600080fd5b506040516200137838038062001378833981018060405260408110156200003b57600080fd5b810190808051906020019092919080516401000000008111156200005e57600080fd5b828101905060208101848111156200007557600080fd5b81518560208202830111640100000000821117156200009357600080fd5b505092919050505060008090505b81518110156200018657600081600185010a9050620000d4816200018f640100000000026200007a176401000000009004565b60006200014a620001118585815181101515620000ed57fe5b90602001906020020151620002396401000000000262000113176401000000009004565b6200013084620002396401000000000262000113176401000000009004565b6200025e6401000000000262000127176401000000009004565b90506200016b81620003006401000000000262000181176401000000009004565b806000540160008190555050508080600101915050620000a1565b50505062000b53565b6200023681604051602401808281526020019150506040516020818303038152906040527ff5b1bba9000000000000000000000000000000000000000000000000000000007bffffffffffffffffffffffffffffffffffffffffffffffffffffffff19166020820180517bffffffffffffffffffffffffffffffffffffffffffffffffffffffff8381831617835250505050620003aa640100000000026401000000009004565b50565b600062000257826000620003d3640100000000026401000000009004565b9050919050565b60006200027962000411640100000000026401000000009004565b8214156200028a57829050620002fa565b600082141515156200029b57600080fd5b620002b462000423640100000000026401000000009004565b8213151515620002c357600080fd5b620002f783620002e2846200043f640100000000026401000000009004565b62000497640100000000026401000000009004565b90505b92915050565b620003a781604051602401808281526020019150506040516020818303038152906040527f4e0c1d1d000000000000000000000000000000000000000000000000000000007bffffffffffffffffffffffffffffffffffffffffffffffffffffffff19166020820180517bffffffffffffffffffffffffffffffffffffffffffffffffffffffff8381831617835250505050620003aa640100000000026401000000009004565b50565b60008151905060006a636f6e736f6c652e6c6f679050602083016000808483855afa5050505050565b6000620004098383620003f4620007a3640100000000026401000000009004565b620007ac640100000000026401000000009004565b905092915050565b600069d3c21bcecceda1000000905090565b600073af298d050e4395d69670b12b7f41000000000000905090565b60008082141515156200045157600080fd5b816200046b62000411640100000000026401000000009004565b6200048462000411640100000000026401000000009004565b028115156200048f57fe5b059050919050565b600080831480620004a85750600082145b15620004b857600090506200079d565b620004d162000411640100000000026401000000009004565b821415620004e2578290506200079d565b620004fb62000411640100000000026401000000009004565b8314156200050c578190506200079d565b60006200052762000411640100000000026401000000009004565b6200054185620009ec640100000000026401000000009004565b8115156200054b57fe5b05905060006200056a8562000a34640100000000026401000000009004565b905060006200058762000411640100000000026401000000009004565b620005a186620009ec640100000000026401000000009004565b811515620005ab57fe5b0590506000620005ca8662000a34640100000000026401000000009004565b905060008285029050600085141515620005fa57828582811515620005eb57fe5b05141515620005f957600080fd5b5b60006200061562000411640100000000026401000000009004565b8202905060008214151562000658576200063d62000411640100000000026401000000009004565b82828115156200064957fe5b051415156200065757600080fd5b5b8091506000848602905060008614151562000689578486828115156200067a57fe5b051415156200068857600080fd5b5b60008488029050600088141515620006b757848882811515620006a857fe5b05141515620006b657600080fd5b5b620006d062000a7e640100000000026401000000009004565b87811515620006db57fe5b059650620006f762000a7e640100000000026401000000009004565b858115156200070257fe5b0594506000858802905060008814151562000733578588828115156200072457fe5b051415156200073257600080fd5b5b600085905062000753818562000a8b640100000000026401000000009004565b905062000770818462000a8b640100000000026401000000009004565b90506200078d818362000a8b640100000000026401000000009004565b9050809a50505050505050505050505b92915050565b60006018905090565b600060268360ff1611158015620007c7575060268260ff1611155b15156200083c576040517f08c379a00000000000000000000000000000000000000000000000000000000081526004018080602001828103825260108152602001807f546f6f206d616e79206469676974732e0000000000000000000000000000000081525060200191505060405180910390fd5b60008260ff168460ff161115620008a45782840390508060ff166fffffffffffffffffffffffffffffffff16600a6fffffffffffffffffffffffffffffffff160a6fffffffffffffffffffffffffffffffff16858115156200089a57fe5b05915050620009e5565b8260ff168460ff161015620009e05783830390508060ff166fffffffffffffffffffffffffffffffff16600a6fffffffffffffffffffffffffffffffff160a6fffffffffffffffffffffffffffffffff166200090e62000b03640100000000026401000000009004565b8115156200091857fe5b0585131515156200092857600080fd5b8060ff166fffffffffffffffffffffffffffffffff16600a6fffffffffffffffffffffffffffffffff160a6fffffffffffffffffffffffffffffffff166200097e62000b2b640100000000026401000000009004565b8115156200098857fe5b0585121515156200099857600080fd5b8060ff166fffffffffffffffffffffffffffffffff16600a6fffffffffffffffffffffffffffffffff160a6fffffffffffffffffffffffffffffffff168502915050620009e5565b849150505b9392505050565b600062000a0762000411640100000000026401000000009004565b62000a2062000411640100000000026401000000009004565b8381151562000a2b57fe5b05029050919050565b600062000a4f62000411640100000000026401000000009004565b62000a6862000411640100000000026401000000009004565b8381151562000a7357fe5b050282039050919050565b600064e8d4a51000905090565b600080828401905060008413801562000aa45750600083135b1562000ac657838113801562000ab957508281135b151562000ac557600080fd5b5b60008412801562000ad75750600083125b1562000af957838112801562000aec57508281125b151562000af857600080fd5b5b8091505092915050565b60007f7fffffffffffffffffffffffffffffffffffffffffffffffffffffffffffffff905090565b60007f8000000000000000000000000000000000000000000000000000000000000000905090565b6108158062000b636000396000f3fe608060405260043610610041576000357c0100000000000000000000000000000000000000000000000000000000900463ffffffff16806325b6823014610046575b600080fd5b34801561005257600080fd5b5061005b610071565b6040518082815260200191505060405180910390f35b60008054905090565b61011081604051602401808281526020019150506040516020818303038152906040527ff5b1bba9000000000000000000000000000000000000000000000000000000007bffffffffffffffffffffffffffffffffffffffffffffffffffffffff19166020820180517bffffffffffffffffffffffffffffffffffffffffffffffffffffffff838183161783525050505061021a565b50565b6000610120826000610243565b9050919050565b600061013161025f565b8214156101405782905061017b565b6000821415151561015057600080fd5b610158610271565b821315151561016657600080fd5b610178836101738461028d565b6102c1565b90505b92915050565b61021781604051602401808281526020019150506040516020818303038152906040527f4e0c1d1d000000000000000000000000000000000000000000000000000000007bffffffffffffffffffffffffffffffffffffffffffffffffffffffff19166020820180517bffffffffffffffffffffffffffffffffffffffffffffffffffffffff838183161783525050505061021a565b50565b60008151905060006a636f6e736f6c652e6c6f679050602083016000808483855afa5050505050565b600061025783836102526104b4565b6104bd565b905092915050565b600069d3c21bcecceda1000000905090565b600073af298d050e4395d69670b12b7f41000000000000905090565b600080821415151561029e57600080fd5b816102a761025f565b6102af61025f565b028115156102b957fe5b059050919050565b6000808314806102d15750600082145b156102df57600090506104ae565b6102e761025f565b8214156102f6578290506104ae565b6102fe61025f565b83141561030d578190506104ae565b600061031761025f565b610320856106d0565b81151561032957fe5b0590506000610337856106f5565b9050600061034361025f565b61034c866106d0565b81151561035557fe5b0590506000610363866106f5565b9050600082850290506000851415156103905782858281151561038257fe5b0514151561038f57600080fd5b5b600061039a61025f565b820290506000821415156103c9576103b061025f565b82828115156103bb57fe5b051415156103c857600080fd5b5b809150600084860290506000861415156103f7578486828115156103e957fe5b051415156103f657600080fd5b5b600084880290506000881415156104225784888281151561041457fe5b0514151561042157600080fd5b5b61042a61071c565b8781151561043457fe5b05965061043f61071c565b8581151561044957fe5b059450600085880290506000881415156104775785888281151561046957fe5b0514151561047657600080fd5b5b60008590506104868185610729565b90506104928184610729565b905061049e8183610729565b9050809a50505050505050505050505b92915050565b60006018905090565b600060268360ff16111580156104d7575060268260ff1611155b151561054b576040517f08c379a00000000000000000000000000000000000000000000000000000000081526004018080602001828103825260108152602001807f546f6f206d616e79206469676974732e0000000000000000000000000000000081525060200191505060405180910390fd5b60008260ff168460ff1611156105b05782840390508060ff166fffffffffffffffffffffffffffffffff16600a6fffffffffffffffffffffffffffffffff160a6fffffffffffffffffffffffffffffffff16858115156105a757fe5b059150506106c9565b8260ff168460ff1610156106c45783830390508060ff166fffffffffffffffffffffffffffffffff16600a6fffffffffffffffffffffffffffffffff160a6fffffffffffffffffffffffffffffffff16610608610799565b81151561061157fe5b05851315151561062057600080fd5b8060ff166fffffffffffffffffffffffffffffffff16600a6fffffffffffffffffffffffffffffffff160a6fffffffffffffffffffffffffffffffff166106656107c1565b81151561066e57fe5b05851215151561067d57600080fd5b8060ff166fffffffffffffffffffffffffffffffff16600a6fffffffffffffffffffffffffffffffff160a6fffffffffffffffffffffffffffffffff1685029150506106c9565b849150505b9392505050565b60006106da61025f565b6106e261025f565b838115156106ec57fe5b05029050919050565b60006106ff61025f565b61070761025f565b8381151561071157fe5b050282039050919050565b600064e8d4a51000905090565b60008082840190506000841380156107415750600083135b1561076057838113801561075457508281135b151561075f57600080fd5b5b6000841280156107705750600083125b1561078f57838112801561078357508281125b151561078e57600080fd5b5b8091505092915050565b60007f7fffffffffffffffffffffffffffffffffffffffffffffffffffffffffffffff905090565b60007f800000000000000000000000000000000000000000000000000000000000000090509056fea165627a7a7230582023e37a94a77a0b15d2d52690896b93225e9919846100ac2de3f6966c90d3dc530029",
  "linkReferences": {},
  "deployedLinkReferences": {}
}