{
  "_format": "hh-sol-artifact-1",
  "contractName": "IRRCalculator",
  "sourceName": "contracts/IRRCalculator.sol",
  "abi": [
    {
      "constant": true,
      "inputs": [],
      "name": "getIRR",
      "outputs": [
        {
          "name": "",
          "type": "int256"
        }
      ],
      "payable": false,
      "stateMutability": "view",
      "type": "function"
    },
    {
      "inputs": [
        {
          "name": "_rate",
          "type": "uint256"
        },
        {
          "name": "_values",
          "type": "int256[]"
        }
      ],
      "payable": false,
      "stateMutability": "nonpayable",
      "type": "constructor"
    }
  ],
  "bytecode": "0x608060405260008055606460015560006002553480156200001f57600080fd5b506040516200137a3803806200137a833981018060405260408110156200004557600080fd5b810190808051906020019092919080516401000000008111156200006857600080fd5b828101905060208101848111156200007f57600080fd5b81518560208202830111640100000000821117156200009d57600080fd5b5050929190505050620000c5828262000114640100000000026200007a176401000000009004565b6000819055506200010c620000f26000546018620001cd64010000000002620000ee176401000000009004565b620001f26401000000000262000102176401000000009004565b505062000b4a565b6000806000905060008090505b8351811015620001c257600081600187010a90506000620001ab6200017287858151811015156200014e57fe5b906020019060200201516200029c640100000000026200019b176401000000009004565b62000191846200029c640100000000026200019b176401000000009004565b620002c164010000000002620001af176401000000009004565b905080840193505050808060010191505062000121565b508091505092915050565b6000620001ea838362000363640100000000026401000000009004565b905092915050565b6200029981604051602401808281526020019150506040516020818303038152906040527f4e0c1d1d000000000000000000000000000000000000000000000000000000007bffffffffffffffffffffffffffffffffffffffffffffffffffffffff19166020820180517bffffffffffffffffffffffffffffffffffffffffffffffffffffffff8381831617835250505050620003a1640100000000026401000000009004565b50565b6000620002ba826000620003ca640100000000026401000000009004565b9050919050565b6000620002dc62000408640100000000026401000000009004565b821415620002ed578290506200035d565b60008214151515620002fe57600080fd5b620003176200041a640100000000026401000000009004565b82131515156200032657600080fd5b6200035a83620003458462000436640100000000026401000000009004565b6200048e640100000000026401000000009004565b90505b92915050565b60006200039983620003836200079a640100000000026401000000009004565b84620007a3640100000000026401000000009004565b905092915050565b60008151905060006a636f6e736f6c652e6c6f679050602083016000808483855afa5050505050565b6000620004008383620003eb6200079a640100000000026401000000009004565b620007a3640100000000026401000000009004565b905092915050565b600069d3c21bcecceda1000000905090565b600073af298d050e4395d69670b12b7f41000000000000905090565b60008082141515156200044857600080fd5b816200046262000408640100000000026401000000009004565b6200047b62000408640100000000026401000000009004565b028115156200048657fe5b059050919050565b6000808314806200049f5750600082145b15620004af576000905062000794565b620004c862000408640100000000026401000000009004565b821415620004d95782905062000794565b620004f262000408640100000000026401000000009004565b831415620005035781905062000794565b60006200051e62000408640100000000026401000000009004565b6200053885620009e3640100000000026401000000009004565b8115156200054257fe5b0590506000620005618562000a2b640100000000026401000000009004565b905060006200057e62000408640100000000026401000000009004565b6200059886620009e3640100000000026401000000009004565b811515620005a257fe5b0590506000620005c18662000a2b640100000000026401000000009004565b905060008285029050600085141515620005f157828582811515620005e257fe5b05141515620005f057600080fd5b5b60006200060c62000408640100000000026401000000009004565b820290506000821415156200064f576200063462000408640100000000026401000000009004565b82828115156200064057fe5b051415156200064e57600080fd5b5b8091506000848602905060008614151562000680578486828115156200067157fe5b051415156200067f57600080fd5b5b60008488029050600088141515620006ae578488828115156200069f57fe5b05141515620006ad57600080fd5b5b620006c762000a75640100000000026401000000009004565b87811515620006d257fe5b059650620006ee62000a75640100000000026401000000009004565b85811515620006f957fe5b059450600085880290506000881415156200072a578588828115156200071b57fe5b051415156200072957600080fd5b5b60008590506200074a818562000a82640100000000026401000000009004565b905062000767818462000a82640100000000026401000000009004565b905062000784818362000a82640100000000026401000000009004565b9050809a50505050505050505050505b92915050565b60006018905090565b600060268360ff1611158015620007be575060268260ff1611155b151562000833576040517f08c379a00000000000000000000000000000000000000000000000000000000081526004018080602001828103825260108152602001807f546f6f206d616e79206469676974732e0000000000000000000000000000000081525060200191505060405180910390fd5b60008260ff168460ff1611156200089b5782840390508060ff166fffffffffffffffffffffffffffffffff16600a6fffffffffffffffffffffffffffffffff160a6fffffffffffffffffffffffffffffffff16858115156200089157fe5b05915050620009dc565b8260ff168460ff161015620009d75783830390508060ff166fffffffffffffffffffffffffffffffff16600a6fffffffffffffffffffffffffffffffff160a6fffffffffffffffffffffffffffffffff166200090562000afa640100000000026401000000009004565b8115156200090f57fe5b0585131515156200091f57600080fd5b8060ff166fffffffffffffffffffffffffffffffff16600a6fffffffffffffffffffffffffffffffff160a6fffffffffffffffffffffffffffffffff166200097562000b22640100000000026401000000009004565b8115156200097f57fe5b0585121515156200098f57600080fd5b8060ff166fffffffffffffffffffffffffffffffff16600a6fffffffffffffffffffffffffffffffff160a6fffffffffffffffffffffffffffffffff168502915050620009dc565b849150505b9392505050565b6000620009fe62000408640100000000026401000000009004565b62000a1762000408640100000000026401000000009004565b8381151562000a2257fe5b05029050919050565b600062000a4662000408640100000000026401000000009004565b62000a5f62000408640100000000026401000000009004565b8381151562000a6a57fe5b050282039050919050565b600064e8d4a51000905090565b600080828401905060008413801562000a9b5750600083135b1562000abd57838113801562000ab057508281135b151562000abc57600080fd5b5b60008412801562000ace5750600083125b1562000af057838112801562000ae357508281125b151562000aef57600080fd5b5b8091505092915050565b60007f7fffffffffffffffffffffffffffffffffffffffffffffffffffffffffffffff905090565b60007f8000000000000000000000000000000000000000000000000000000000000000905090565b6108208062000b5a6000396000f3fe608060405260043610610041576000357c0100000000000000000000000000000000000000000000000000000000900463ffffffff16806325b6823014610046575b600080fd5b34801561005257600080fd5b5061005b610071565b6040518082815260200191505060405180910390f35b60008054905090565b6000806000905060008090505b83518110156100e357600081600187010a905060006100cd6100bf87858151811015156100b057fe5b9060200190602002015161019b565b6100c88461019b565b6101af565b9050808401935050508080600101915050610087565b508091505092915050565b60006100fa8383610209565b905092915050565b61019881604051602401808281526020019150506040516020818303038152906040527f4e0c1d1d000000000000000000000000000000000000000000000000000000007bffffffffffffffffffffffffffffffffffffffffffffffffffffffff19166020820180517bffffffffffffffffffffffffffffffffffffffffffffffffffffffff8381831617835250505050610225565b50565b60006101a882600061024e565b9050919050565b60006101b961026a565b8214156101c857829050610203565b600082141515156101d857600080fd5b6101e061027c565b82131515156101ee57600080fd5b610200836101fb84610298565b6102cc565b90505b92915050565b600061021d836102176104bf565b846104c8565b905092915050565b60008151905060006a636f6e736f6c652e6c6f679050602083016000808483855afa5050505050565b6000610262838361025d6104bf565b6104c8565b905092915050565b600069d3c21bcecceda1000000905090565b600073af298d050e4395d69670b12b7f41000000000000905090565b60008082141515156102a957600080fd5b816102b261026a565b6102ba61026a565b028115156102c457fe5b059050919050565b6000808314806102dc5750600082145b156102ea57600090506104b9565b6102f261026a565b821415610301578290506104b9565b61030961026a565b831415610318578190506104b9565b600061032261026a565b61032b856106db565b81151561033457fe5b059050600061034285610700565b9050600061034e61026a565b610357866106db565b81151561036057fe5b059050600061036e86610700565b90506000828502905060008514151561039b5782858281151561038d57fe5b0514151561039a57600080fd5b5b60006103a561026a565b820290506000821415156103d4576103bb61026a565b82828115156103c657fe5b051415156103d357600080fd5b5b80915060008486029050600086141515610402578486828115156103f457fe5b0514151561040157600080fd5b5b6000848802905060008814151561042d5784888281151561041f57fe5b0514151561042c57600080fd5b5b610435610727565b8781151561043f57fe5b05965061044a610727565b8581151561045457fe5b059450600085880290506000881415156104825785888281151561047457fe5b0514151561048157600080fd5b5b60008590506104918185610734565b905061049d8184610734565b90506104a98183610734565b9050809a50505050505050505050505b92915050565b60006018905090565b600060268360ff16111580156104e2575060268260ff1611155b1515610556576040517f08c379a00000000000000000000000000000000000000000000000000000000081526004018080602001828103825260108152602001807f546f6f206d616e79206469676974732e0000000000000000000000000000000081525060200191505060405180910390fd5b60008260ff168460ff1611156105bb5782840390508060ff166fffffffffffffffffffffffffffffffff16600a6fffffffffffffffffffffffffffffffff160a6fffffffffffffffffffffffffffffffff16858115156105b257fe5b059150506106d4565b8260ff168460ff1610156106cf5783830390508060ff166fffffffffffffffffffffffffffffffff16600a6fffffffffffffffffffffffffffffffff160a6fffffffffffffffffffffffffffffffff166106136107a4565b81151561061c57fe5b05851315151561062b57600080fd5b8060ff166fffffffffffffffffffffffffffffffff16600a6fffffffffffffffffffffffffffffffff160a6fffffffffffffffffffffffffffffffff166106706107cc565b81151561067957fe5b05851215151561068857600080fd5b8060ff166fffffffffffffffffffffffffffffffff16600a6fffffffffffffffffffffffffffffffff160a6fffffffffffffffffffffffffffffffff1685029150506106d4565b849150505b9392505050565b60006106e561026a565b6106ed61026a565b838115156106f757fe5b05029050919050565b600061070a61026a565b61071261026a565b8381151561071c57fe5b050282039050919050565b600064e8d4a51000905090565b600080828401905060008413801561074c5750600083135b1561076b57838113801561075f57508281135b151561076a57600080fd5b5b60008412801561077b5750600083125b1561079a57838112801561078e57508281125b151561079957600080fd5b5b8091505092915050565b60007f7fffffffffffffffffffffffffffffffffffffffffffffffffffffffffffffff905090565b60007f800000000000000000000000000000000000000000000000000000000000000090509056fea165627a7a72305820bd07d192c5844e1b2fb90c2d57e10324621b77c491b610bb47aba2fc07cd3cd70029",
  "linkReferences": {},
  "deployedLinkReferences": {}
}