{
  "_format": "hh-sol-artifact-1",
  "contractName": "IRRCalculator",
  "sourceName": "contracts/IRRCalculator.sol",
  "abi": [
    {
      "constant": true,
      "inputs": [],
      "name": "getIRR",
      "outputs": [
        {
          "name": "",
          "type": "int256"
        }
      ],
      "payable": false,
      "stateMutability": "view",
      "type": "function"
    },
    {
      "constant": true,
      "inputs": [],
      "name": "emp",
      "outputs": [
        {
          "name": "",
          "type": "address"
        }
      ],
      "payable": false,
      "stateMutability": "view",
      "type": "function"
    },
    {
      "constant": true,
      "inputs": [
        {
          "name": "",
          "type": "address"
        }
      ],
      "name": "employees",
      "outputs": [
        {
          "name": "origin",
          "type": "address"
        }
      ],
      "payable": false,
      "stateMutability": "view",
      "type": "function"
    },
    {
      "inputs": [
        {
          "name": "_rate",
          "type": "uint256"
        },
        {
          "name": "_values",
          "type": "int256[]"
        }
      ],
      "payable": false,
      "stateMutability": "nonpayable",
      "type": "constructor"
    }
  ],
  "bytecode": "0x6080604052600080553480156200001557600080fd5b5060405162000ecc38038062000ecc833981018060405260408110156200003b57600080fd5b810190808051906020019092919080516401000000008111156200005e57600080fd5b828101905060208101848111156200007557600080fd5b81518560208202830111640100000000821117156200009357600080fd5b505092919050505060008211151562000114576040517f08c379a000000000000000000000000000000000000000000000000000000000815260040180806020018281038252601d8152602001807f477565737320726174652063616e6e6f74206265206e6567617469766500000081525060200191505060405180910390fd5b33600160006101000a81548173ffffffffffffffffffffffffffffffffffffffff021916908373ffffffffffffffffffffffffffffffffffffffff160217905550600160009054906101000a900473ffffffffffffffffffffffffffffffffffffffff1660026000600160009054906101000a900473ffffffffffffffffffffffffffffffffffffffff1673ffffffffffffffffffffffffffffffffffffffff1673ffffffffffffffffffffffffffffffffffffffff16815260200190815260200160002060000160006101000a81548173ffffffffffffffffffffffffffffffffffffffff021916908373ffffffffffffffffffffffffffffffffffffffff160217905550620186a08202915060008090505b81518110156200027b57620186a082828151811015156200024557fe5b906020019060200201510282828151811015156200025f57fe5b9060200190602002018181525050808060010191505062000228565b50620002978282620002a5640100000000026401000000009004565b6000819055505050620009b2565b6000600160009054906101000a900473ffffffffffffffffffffffffffffffffffffffff1673ffffffffffffffffffffffffffffffffffffffff163373ffffffffffffffffffffffffffffffffffffffff1614151562000393576040517f08c379a00000000000000000000000000000000000000000000000000000000081526004018080602001828103825260328152602001807f4f6e6c792066696e616e6369616c20616e616c79697374732063616e2061636381526020017f657373207468697320696e74657266616365000000000000000000000000000081525060400191505060405180910390fd5b6000831115156200040c576040517f08c379a000000000000000000000000000000000000000000000000000000000815260040180806020018281038252601d8152602001807f477565737320726174652063616e6e6f74206265206e6567617469766500000081525060200191505060405180910390fd5b6000825111151562000486576040517f08c379a000000000000000000000000000000000000000000000000000000000815260040180806020018281038252601e8152602001807f56616c75657320656e74657265642063616e6e6f7420626520656d707479000081525060200191505060405180910390fd5b60008090506000620186a0905060008090505b84518110156200051957600081870a90506000620005028784815181101515620004bf57fe5b90602001906020020151620004e8846200052564010000000002620001dc176401000000009004565b6200057d6401000000000262000210176401000000009004565b905080850194505050808060010191505062000499565b50819250505092915050565b60008082141515156200053757600080fd5b816200055162000889640100000000026401000000009004565b6200056a62000889640100000000026401000000009004565b028115156200057557fe5b059050919050565b6000808314806200058e5750600082145b156200059e576000905062000883565b620005b762000889640100000000026401000000009004565b821415620005c85782905062000883565b620005e162000889640100000000026401000000009004565b831415620005f25781905062000883565b60006200060d62000889640100000000026401000000009004565b62000627856200089b640100000000026401000000009004565b8115156200063157fe5b05905060006200065085620008e3640100000000026401000000009004565b905060006200066d62000889640100000000026401000000009004565b62000687866200089b640100000000026401000000009004565b8115156200069157fe5b0590506000620006b086620008e3640100000000026401000000009004565b905060008285029050600085141515620006e057828582811515620006d157fe5b05141515620006df57600080fd5b5b6000620006fb62000889640100000000026401000000009004565b820290506000821415156200073e576200072362000889640100000000026401000000009004565b82828115156200072f57fe5b051415156200073d57600080fd5b5b809150600084860290506000861415156200076f578486828115156200076057fe5b051415156200076e57600080fd5b5b600084880290506000881415156200079d578488828115156200078e57fe5b051415156200079c57600080fd5b5b620007b66200092d640100000000026401000000009004565b87811515620007c157fe5b059650620007dd6200092d640100000000026401000000009004565b85811515620007e857fe5b0594506000858802905060008814151562000819578588828115156200080a57fe5b051415156200081857600080fd5b5b60008590506200083981856200093a640100000000026401000000009004565b90506200085681846200093a640100000000026401000000009004565b90506200087381836200093a640100000000026401000000009004565b9050809a50505050505050505050505b92915050565b600069d3c21bcecceda1000000905090565b6000620008b662000889640100000000026401000000009004565b620008cf62000889640100000000026401000000009004565b83811515620008da57fe5b05029050919050565b6000620008fe62000889640100000000026401000000009004565b6200091762000889640100000000026401000000009004565b838115156200092257fe5b050282039050919050565b600064e8d4a51000905090565b6000808284019050600084138015620009535750600083135b15620009755783811380156200096857508281135b15156200097457600080fd5b5b600084128015620009865750600083125b15620009a85783811280156200099b57508281125b1515620009a757600080fd5b5b8091505092915050565b61050a80620009c26000396000f3fe608060405260043610610057576000357c0100000000000000000000000000000000000000000000000000000000900463ffffffff16806325b682301461005c578063b34fad4114610087578063d0678947146100de575b600080fd5b34801561006857600080fd5b5061007161016f565b6040518082815260200191505060405180910390f35b34801561009357600080fd5b5061009c610178565b604051808273ffffffffffffffffffffffffffffffffffffffff1673ffffffffffffffffffffffffffffffffffffffff16815260200191505060405180910390f35b3480156100ea57600080fd5b5061012d6004803603602081101561010157600080fd5b81019080803573ffffffffffffffffffffffffffffffffffffffff16906020019092919050505061019e565b604051808273ffffffffffffffffffffffffffffffffffffffff1673ffffffffffffffffffffffffffffffffffffffff16815260200191505060405180910390f35b60008054905090565b600160009054906101000a900473ffffffffffffffffffffffffffffffffffffffff1681565b60026020528060005260406000206000915090508060000160009054906101000a900473ffffffffffffffffffffffffffffffffffffffff16905081565b60008082141515156101ed57600080fd5b816101f6610403565b6101fe610403565b0281151561020857fe5b059050919050565b6000808314806102205750600082145b1561022e57600090506103fd565b610236610403565b821415610245578290506103fd565b61024d610403565b83141561025c578190506103fd565b6000610266610403565b61026f85610415565b81151561027857fe5b05905060006102868561043a565b90506000610292610403565b61029b86610415565b8115156102a457fe5b05905060006102b28661043a565b9050600082850290506000851415156102df578285828115156102d157fe5b051415156102de57600080fd5b5b60006102e9610403565b82029050600082141515610318576102ff610403565b828281151561030a57fe5b0514151561031757600080fd5b5b809150600084860290506000861415156103465784868281151561033857fe5b0514151561034557600080fd5b5b600084880290506000881415156103715784888281151561036357fe5b0514151561037057600080fd5b5b610379610461565b8781151561038357fe5b05965061038e610461565b8581151561039857fe5b059450600085880290506000881415156103c6578588828115156103b857fe5b051415156103c557600080fd5b5b60008590506103d5818561046e565b90506103e1818461046e565b90506103ed818361046e565b9050809a50505050505050505050505b92915050565b600069d3c21bcecceda1000000905090565b600061041f610403565b610427610403565b8381151561043157fe5b05029050919050565b6000610444610403565b61044c610403565b8381151561045657fe5b050282039050919050565b600064e8d4a51000905090565b60008082840190506000841380156104865750600083135b156104a557838113801561049957508281135b15156104a457600080fd5b5b6000841280156104b55750600083125b156104d45783811280156104c857508281125b15156104d357600080fd5b5b809150509291505056fea165627a7a723058201f8c6ca99cf0189d95aaa42f15c381829a4bbd84438a4893415c19b5029635ee0029",
  "linkReferences": {},
  "deployedLinkReferences": {}
}