{
  "_format": "hh-sol-artifact-1",
  "contractName": "IRRCalculator",
  "sourceName": "contracts/IRRCalculator.sol",
  "abi": [
    {
      "constant": true,
      "inputs": [],
      "name": "emp",
      "outputs": [
        {
          "name": "",
          "type": "address"
        }
      ],
      "payable": false,
      "stateMutability": "view",
      "type": "function"
    },
    {
      "constant": true,
      "inputs": [
        {
          "name": "",
          "type": "address"
        }
      ],
      "name": "employees",
      "outputs": [
        {
          "name": "role",
          "type": "string"
        },
        {
          "name": "origin",
          "type": "address"
        }
      ],
      "payable": false,
      "stateMutability": "view",
      "type": "function"
    },
    {
      "constant": true,
      "inputs": [],
      "name": "irr",
      "outputs": [
        {
          "name": "",
          "type": "int256"
        }
      ],
      "payable": false,
      "stateMutability": "view",
      "type": "function"
    },
    {
      "inputs": [
        {
          "name": "_rate",
          "type": "uint256"
        },
        {
          "name": "_values",
          "type": "int256[]"
        },
        {
          "name": "_role",
          "type": "string"
        }
      ],
      "payable": false,
      "stateMutability": "nonpayable",
      "type": "constructor"
    }
  ],
  "bytecode": "0x608060405260006002553480156200001657600080fd5b50604051620010e4380380620010e4833981018060405260608110156200003c57600080fd5b810190808051906020019092919080516401000000008111156200005f57600080fd5b828101905060208101848111156200007657600080fd5b81518560208202830111640100000000821117156200009457600080fd5b50509291906020018051640100000000811115620000b157600080fd5b82810190506020810184811115620000c857600080fd5b8151856001820283011164010000000082111715620000e657600080fd5b505092919050505033600160006101000a81548173ffffffffffffffffffffffffffffffffffffffff021916908373ffffffffffffffffffffffffffffffffffffffff160217905550600160009054906101000a900473ffffffffffffffffffffffffffffffffffffffff16600080600160009054906101000a900473ffffffffffffffffffffffffffffffffffffffff1673ffffffffffffffffffffffffffffffffffffffff1673ffffffffffffffffffffffffffffffffffffffff16815260200190815260200160002060010160006101000a81548173ffffffffffffffffffffffffffffffffffffffff021916908373ffffffffffffffffffffffffffffffffffffffff16021790555080600080600160009054906101000a900473ffffffffffffffffffffffffffffffffffffffff1673ffffffffffffffffffffffffffffffffffffffff1673ffffffffffffffffffffffffffffffffffffffff16815260200190815260200160002060000190805190602001906200026c9291906200088f565b5060008090505b8251811015620002c657620186a083828151811015156200029057fe5b90602001906020020151028382815181101515620002aa57fe5b9060200190602002018181525050808060010191505062000273565b50620002e28383620002f1640100000000026401000000009004565b6002819055505050506200093e565b60008082511115156200036c576040517f08c379a000000000000000000000000000000000000000000000000000000000815260040180806020018281038252601e8152602001807f56616c75657320656e74657265642063616e6e6f7420626520656d707479000081525060200191505060405180910390fd5b600080905060008090505b8351811015620003f757600081860a90506000620003e086848151811015156200039d57fe5b90602001906020020151620003c684620004026401000000000262000468176401000000009004565b6200045a640100000000026200049c176401000000009004565b905080840193505050808060010191505062000377565b508091505092915050565b60008082141515156200041457600080fd5b816200042e62000766640100000000026401000000009004565b6200044762000766640100000000026401000000009004565b028115156200045257fe5b059050919050565b6000808314806200046b5750600082145b156200047b576000905062000760565b6200049462000766640100000000026401000000009004565b821415620004a55782905062000760565b620004be62000766640100000000026401000000009004565b831415620004cf5781905062000760565b6000620004ea62000766640100000000026401000000009004565b620005048562000778640100000000026401000000009004565b8115156200050e57fe5b05905060006200052d85620007c0640100000000026401000000009004565b905060006200054a62000766640100000000026401000000009004565b620005648662000778640100000000026401000000009004565b8115156200056e57fe5b05905060006200058d86620007c0640100000000026401000000009004565b905060008285029050600085141515620005bd57828582811515620005ae57fe5b05141515620005bc57600080fd5b5b6000620005d862000766640100000000026401000000009004565b820290506000821415156200061b576200060062000766640100000000026401000000009004565b82828115156200060c57fe5b051415156200061a57600080fd5b5b809150600084860290506000861415156200064c578486828115156200063d57fe5b051415156200064b57600080fd5b5b600084880290506000881415156200067a578488828115156200066b57fe5b051415156200067957600080fd5b5b620006936200080a640100000000026401000000009004565b878115156200069e57fe5b059650620006ba6200080a640100000000026401000000009004565b85811515620006c557fe5b05945060008588029050600088141515620006f657858882811515620006e757fe5b05141515620006f557600080fd5b5b600085905062000716818562000817640100000000026401000000009004565b905062000733818462000817640100000000026401000000009004565b905062000750818362000817640100000000026401000000009004565b9050809a50505050505050505050505b92915050565b600069d3c21bcecceda1000000905090565b60006200079362000766640100000000026401000000009004565b620007ac62000766640100000000026401000000009004565b83811515620007b757fe5b05029050919050565b6000620007db62000766640100000000026401000000009004565b620007f462000766640100000000026401000000009004565b83811515620007ff57fe5b050282039050919050565b600064e8d4a51000905090565b6000808284019050600084138015620008305750600083135b15620008525783811380156200084557508281135b15156200085157600080fd5b5b600084128015620008635750600083125b15620008855783811280156200087857508281125b15156200088457600080fd5b5b8091505092915050565b828054600181600116156101000203166002900490600052602060002090601f016020900481019282601f10620008d257805160ff191683800117855562000903565b8280016001018555821562000903579182015b8281111562000902578251825591602001919060010190620008e5565b5b50905062000912919062000916565b5090565b6200093b91905b80821115620009375760008160009055506001016200091d565b5090565b90565b610796806200094e6000396000f3fe608060405260043610610057576000357c0100000000000000000000000000000000000000000000000000000000900463ffffffff168063b34fad411461005c578063d0678947146100b3578063d691ff38146101b0575b600080fd5b34801561006857600080fd5b506100716101db565b604051808273ffffffffffffffffffffffffffffffffffffffff1673ffffffffffffffffffffffffffffffffffffffff16815260200191505060405180910390f35b3480156100bf57600080fd5b50610102600480360360208110156100d657600080fd5b81019080803573ffffffffffffffffffffffffffffffffffffffff169060200190929190505050610201565b60405180806020018373ffffffffffffffffffffffffffffffffffffffff1673ffffffffffffffffffffffffffffffffffffffff168152602001828103825284818151815260200191508051906020019080838360005b83811015610174578082015181840152602081019050610159565b50505050905090810190601f1680156101a15780820380516001836020036101000a031916815260200191505b50935050505060405180910390f35b3480156101bc57600080fd5b506101c56102dd565b6040518082815260200191505060405180910390f35b600160009054906101000a900473ffffffffffffffffffffffffffffffffffffffff1681565b6000602052806000526040600020600091509050806000018054600181600116156101000203166002900480601f0160208091040260200160405190810160405280929190818152602001828054600181600116156101000203166002900480156102ad5780601f10610282576101008083540402835291602001916102ad565b820191906000526020600020905b81548152906001019060200180831161029057829003601f168201915b5050505050908060010160009054906101000a900473ffffffffffffffffffffffffffffffffffffffff16905082565b60006040805190810160405280601181526020017f66696e616e6369616c20616e616c797374000000000000000000000000000000815250805190602001206000803373ffffffffffffffffffffffffffffffffffffffff1673ffffffffffffffffffffffffffffffffffffffff16815260200190815260200160002060000160405180828054600181600116156101000203166002900480156103b85780601f106103965761010080835404028352918201916103b8565b820191906000526020600020905b8154815290600101906020018083116103a4575b50509150506040518091039020141515610460576040517f08c379a00000000000000000000000000000000000000000000000000000000081526004018080602001828103825260328152602001807f4f6e6c792066696e616e6369616c20616e616c79697374732063616e2061636381526020017f657373207468697320696e74657266616365000000000000000000000000000081525060400191505060405180910390fd5b600254905090565b600080821415151561047957600080fd5b8161048261068f565b61048a61068f565b0281151561049457fe5b059050919050565b6000808314806104ac5750600082145b156104ba5760009050610689565b6104c261068f565b8214156104d157829050610689565b6104d961068f565b8314156104e857819050610689565b60006104f261068f565b6104fb856106a1565b81151561050457fe5b0590506000610512856106c6565b9050600061051e61068f565b610527866106a1565b81151561053057fe5b059050600061053e866106c6565b90506000828502905060008514151561056b5782858281151561055d57fe5b0514151561056a57600080fd5b5b600061057561068f565b820290506000821415156105a45761058b61068f565b828281151561059657fe5b051415156105a357600080fd5b5b809150600084860290506000861415156105d2578486828115156105c457fe5b051415156105d157600080fd5b5b600084880290506000881415156105fd578488828115156105ef57fe5b051415156105fc57600080fd5b5b6106056106ed565b8781151561060f57fe5b05965061061a6106ed565b8581151561062457fe5b059450600085880290506000881415156106525785888281151561064457fe5b0514151561065157600080fd5b5b600085905061066181856106fa565b905061066d81846106fa565b905061067981836106fa565b9050809a50505050505050505050505b92915050565b600069d3c21bcecceda1000000905090565b60006106ab61068f565b6106b361068f565b838115156106bd57fe5b05029050919050565b60006106d061068f565b6106d861068f565b838115156106e257fe5b050282039050919050565b600064e8d4a51000905090565b60008082840190506000841380156107125750600083135b1561073157838113801561072557508281135b151561073057600080fd5b5b6000841280156107415750600083125b1561076057838112801561075457508281125b151561075f57600080fd5b5b809150509291505056fea165627a7a72305820b2c28b42b417efbeb78fa5b217e874762374e5f899ceb0c81f148b826458080f0029",
  "linkReferences": {},
  "deployedLinkReferences": {}
}