{
  "_format": "hh-sol-artifact-1",
  "contractName": "IRRCalculator",
  "sourceName": "contracts/IRRCalculator.sol",
  "abi": [
    {
      "constant": true,
      "inputs": [],
      "name": "getIRR",
      "outputs": [
        {
          "name": "",
          "type": "int256"
        }
      ],
      "payable": false,
      "stateMutability": "view",
      "type": "function"
    },
    {
      "constant": true,
      "inputs": [],
      "name": "emp",
      "outputs": [
        {
          "name": "",
          "type": "address"
        }
      ],
      "payable": false,
      "stateMutability": "view",
      "type": "function"
    },
    {
      "constant": true,
      "inputs": [
        {
          "name": "",
          "type": "address"
        }
      ],
      "name": "employees",
      "outputs": [
        {
          "name": "role",
          "type": "string"
        },
        {
          "name": "origin",
          "type": "address"
        }
      ],
      "payable": false,
      "stateMutability": "view",
      "type": "function"
    },
    {
      "inputs": [
        {
          "name": "_rate",
          "type": "uint256"
        },
        {
          "name": "_values",
          "type": "int256[]"
        },
        {
          "name": "_role",
          "type": "string"
        }
      ],
      "payable": false,
      "stateMutability": "nonpayable",
      "type": "constructor"
    }
  ],
  "bytecode": "0x608060405260006002553480156200001657600080fd5b50604051620010ea380380620010ea833981018060405260608110156200003c57600080fd5b810190808051906020019092919080516401000000008111156200005f57600080fd5b828101905060208101848111156200007657600080fd5b81518560208202830111640100000000821117156200009457600080fd5b50509291906020018051640100000000811115620000b157600080fd5b82810190506020810184811115620000c857600080fd5b8151856001820283011164010000000082111715620000e657600080fd5b505092919050505033600160006101000a81548173ffffffffffffffffffffffffffffffffffffffff021916908373ffffffffffffffffffffffffffffffffffffffff160217905550600160009054906101000a900473ffffffffffffffffffffffffffffffffffffffff16600080600160009054906101000a900473ffffffffffffffffffffffffffffffffffffffff1673ffffffffffffffffffffffffffffffffffffffff1673ffffffffffffffffffffffffffffffffffffffff16815260200190815260200160002060010160006101000a81548173ffffffffffffffffffffffffffffffffffffffff021916908373ffffffffffffffffffffffffffffffffffffffff16021790555080600080600160009054906101000a900473ffffffffffffffffffffffffffffffffffffffff1673ffffffffffffffffffffffffffffffffffffffff1673ffffffffffffffffffffffffffffffffffffffff16815260200190815260200160002060000190805190602001906200026c92919062000a16565b5060008090505b8251811015620002c657620186a083828151811015156200029057fe5b90602001906020020151028382815181101515620002aa57fe5b9060200190602002018181525050808060010191505062000273565b50620002e28383620002f1640100000000026401000000009004565b60028190555050505062000ac5565b60006040805190810160405280601181526020017f66696e616e6369616c20616e616c797374000000000000000000000000000000815250805190602001206000803373ffffffffffffffffffffffffffffffffffffffff1673ffffffffffffffffffffffffffffffffffffffff1681526020019081526020016000206000016040518082805460018160011615610100020316600290048015620003d05780601f10620003ad576101008083540402835291820191620003d0565b820191906000526020600020905b815481529060010190602001808311620003bb575b5050915050604051809103902014151562000479576040517f08c379a00000000000000000000000000000000000000000000000000000000081526004018080602001828103825260328152602001807f4f6e6c792066696e616e6369616c20616e616c79697374732063616e2061636381526020017f657373207468697320696e74657266616365000000000000000000000000000081525060400191505060405180910390fd5b60008251111515620004f3576040517f08c379a000000000000000000000000000000000000000000000000000000000815260040180806020018281038252601e8152602001807f56616c75657320656e74657265642063616e6e6f7420626520656d707479000081525060200191505060405180910390fd5b600080905060008090505b83518110156200057e57600081860a905060006200056786848151811015156200052457fe5b906020019060200201516200054d846200058964010000000002620002e7176401000000009004565b620005e1640100000000026200031b176401000000009004565b9050808401935050508080600101915050620004fe565b508091505092915050565b60008082141515156200059b57600080fd5b81620005b5620008ed640100000000026401000000009004565b620005ce620008ed640100000000026401000000009004565b02811515620005d957fe5b059050919050565b600080831480620005f25750600082145b15620006025760009050620008e7565b6200061b620008ed640100000000026401000000009004565b8214156200062c57829050620008e7565b62000645620008ed640100000000026401000000009004565b8314156200065657819050620008e7565b600062000671620008ed640100000000026401000000009004565b6200068b85620008ff640100000000026401000000009004565b8115156200069557fe5b0590506000620006b48562000947640100000000026401000000009004565b90506000620006d1620008ed640100000000026401000000009004565b620006eb86620008ff640100000000026401000000009004565b811515620006f557fe5b0590506000620007148662000947640100000000026401000000009004565b90506000828502905060008514151562000744578285828115156200073557fe5b051415156200074357600080fd5b5b60006200075f620008ed640100000000026401000000009004565b82029050600082141515620007a25762000787620008ed640100000000026401000000009004565b82828115156200079357fe5b05141515620007a157600080fd5b5b80915060008486029050600086141515620007d357848682811515620007c457fe5b05141515620007d257600080fd5b5b600084880290506000881415156200080157848882811515620007f257fe5b051415156200080057600080fd5b5b6200081a62000991640100000000026401000000009004565b878115156200082557fe5b0596506200084162000991640100000000026401000000009004565b858115156200084c57fe5b059450600085880290506000881415156200087d578588828115156200086e57fe5b051415156200087c57600080fd5b5b60008590506200089d81856200099e640100000000026401000000009004565b9050620008ba81846200099e640100000000026401000000009004565b9050620008d781836200099e640100000000026401000000009004565b9050809a50505050505050505050505b92915050565b600069d3c21bcecceda1000000905090565b60006200091a620008ed640100000000026401000000009004565b62000933620008ed640100000000026401000000009004565b838115156200093e57fe5b05029050919050565b600062000962620008ed640100000000026401000000009004565b6200097b620008ed640100000000026401000000009004565b838115156200098657fe5b050282039050919050565b600064e8d4a51000905090565b6000808284019050600084138015620009b75750600083135b15620009d9578381138015620009cc57508281135b1515620009d857600080fd5b5b600084128015620009ea5750600083125b1562000a0c578381128015620009ff57508281125b151562000a0b57600080fd5b5b8091505092915050565b828054600181600116156101000203166002900490600052602060002090601f016020900481019282601f1062000a5957805160ff191683800117855562000a8a565b8280016001018555821562000a8a579182015b8281111562000a8957825182559160200191906001019062000a6c565b5b50905062000a99919062000a9d565b5090565b62000ac291905b8082111562000abe57600081600090555060010162000aa4565b5090565b90565b6106158062000ad56000396000f3fe608060405260043610610057576000357c0100000000000000000000000000000000000000000000000000000000900463ffffffff16806325b682301461005c578063b34fad4114610087578063d0678947146100de575b600080fd5b34801561006857600080fd5b506100716101db565b6040518082815260200191505060405180910390f35b34801561009357600080fd5b5061009c6101e5565b604051808273ffffffffffffffffffffffffffffffffffffffff1673ffffffffffffffffffffffffffffffffffffffff16815260200191505060405180910390f35b3480156100ea57600080fd5b5061012d6004803603602081101561010157600080fd5b81019080803573ffffffffffffffffffffffffffffffffffffffff16906020019092919050505061020b565b60405180806020018373ffffffffffffffffffffffffffffffffffffffff1673ffffffffffffffffffffffffffffffffffffffff168152602001828103825284818151815260200191508051906020019080838360005b8381101561019f578082015181840152602081019050610184565b50505050905090810190601f1680156101cc5780820380516001836020036101000a031916815260200191505b50935050505060405180910390f35b6000600254905090565b600160009054906101000a900473ffffffffffffffffffffffffffffffffffffffff1681565b6000602052806000526040600020600091509050806000018054600181600116156101000203166002900480601f0160208091040260200160405190810160405280929190818152602001828054600181600116156101000203166002900480156102b75780601f1061028c576101008083540402835291602001916102b7565b820191906000526020600020905b81548152906001019060200180831161029a57829003601f168201915b5050505050908060010160009054906101000a900473ffffffffffffffffffffffffffffffffffffffff16905082565b60008082141515156102f857600080fd5b8161030161050e565b61030961050e565b0281151561031357fe5b059050919050565b60008083148061032b5750600082145b156103395760009050610508565b61034161050e565b82141561035057829050610508565b61035861050e565b83141561036757819050610508565b600061037161050e565b61037a85610520565b81151561038357fe5b059050600061039185610545565b9050600061039d61050e565b6103a686610520565b8115156103af57fe5b05905060006103bd86610545565b9050600082850290506000851415156103ea578285828115156103dc57fe5b051415156103e957600080fd5b5b60006103f461050e565b820290506000821415156104235761040a61050e565b828281151561041557fe5b0514151561042257600080fd5b5b809150600084860290506000861415156104515784868281151561044357fe5b0514151561045057600080fd5b5b6000848802905060008814151561047c5784888281151561046e57fe5b0514151561047b57600080fd5b5b61048461056c565b8781151561048e57fe5b05965061049961056c565b858115156104a357fe5b059450600085880290506000881415156104d1578588828115156104c357fe5b051415156104d057600080fd5b5b60008590506104e08185610579565b90506104ec8184610579565b90506104f88183610579565b9050809a50505050505050505050505b92915050565b600069d3c21bcecceda1000000905090565b600061052a61050e565b61053261050e565b8381151561053c57fe5b05029050919050565b600061054f61050e565b61055761050e565b8381151561056157fe5b050282039050919050565b600064e8d4a51000905090565b60008082840190506000841380156105915750600083135b156105b05783811380156105a457508281135b15156105af57600080fd5b5b6000841280156105c05750600083125b156105df5783811280156105d357508281125b15156105de57600080fd5b5b809150509291505056fea165627a7a72305820888d0d5d35a233222472b738a45dfcb07b51eef6194357e64b5a9a528ef62c500029",
  "linkReferences": {},
  "deployedLinkReferences": {}
}